:020000040000fa
:080000000002040000000000f2
:020000040000fa
:0400080042030000af
:020000040000fa
:04000c0042030000ab
:020000040000fa
:0400100042030000a7
:020000040000fa
:0400140042030000a3
:020000040000fa
:04001800420300009f
:020000040000fa
:04001c00420300009b
:020000040000fa
:040020004203000097
:020000040000fa
:040024004203000093
:020000040000fa
:04002800420300008f
:020000040000fa
:04002c00420300008b
:020000040000fa
:040030004203000087
:020000040000fa
:040034004203000083
:020000040000fa
:04003800420300007f
:020000040000fa
:04003c00420300007b
:020000040000fa
:040040004203000077
:020000040000fa
:040044004203000073
:020000040000fa
:04004800420300006f
:020000040000fa
:04004c00420300006b
:020000040000fa
:040050004203000067
:020000040000fa
:04005400dc020000ca
:020000040000fa
:04005800420300005f
:020000040000fa
:04005c00420300005b
:020000040000fa
:040060004203000057
:020000040000fa
:040064004203000053
:020000040000fa
:04006800420300004f
:020000040000fa
:04006c00420300004b
:020000040000fa
:040070004203000047
:020000040000fa
:040074004203000043
:020000040000fa
:04007800420300003f
:020000040000fa
:04007c00420300003b
:020000040000fa
:040080004203000037
:020000040000fa
:040084004203000033
:020000040000fa
:04008800420300002f
:020000040000fa
:04008c00420300002b
:020000040000fa
:040090004203000027
:020000040000fa
:040094004203000023
:020000040000fa
:04009800420300001f
:020000040000fa
:04009c00420300001b
:020000040000fa
:0400a0004203000017
:020000040000fa
:0400a4000003000055
:020000040000fa
:0400a800420300000f
:020000040000fa
:0400ac00420300000b
:020000040000fa
:0400b0004203000007
:020000040000fa
:0400b4004203000003
:020000040000fa
:0400b80042030000ff
:020000040000fa
:0400bc0042030000fb
:020000040000fa
:0400c00042030000f7
:020000040000fa
:0400c40042030000f3
:020000040000fa
:0400c80042030000ef
:020000040000fa
:0400cc0042030000eb
:020000040000fa
:0400d00042030000e7
:020000040000fa
:0400d40042030000e3
:020000040000fa
:0400d80042030000df
:020000040000fa
:0400dc0042030000db
:020000040000fa
:0400e00042030000d7
:020000040000fa
:0400e40042030000d3
:020000040000fa
:0400e80042030000cf
:020000040000fa
:0400ec0042030000cb
:020000040000fa
:0400f00042030000c7
:020000040000fa
:0400f40042030000c3
:020000040000fa
:0400f80042030000bf
:020000040000fa
:0400fc0042030000bb
:020000040000fa
:0401000042030000b6
:020000040000fa
:0401040042030000b2
:020000040000fa
:0401080042030000ae
:020000040000fa
:04010c0042030000aa
:020000040000fa
:0401100042030000a6
:020000040000fa
:0401140042030000a2
:020000040000fa
:04011800420300009e
:020000040000fa
:04011c00420300009a
:020000040000fa
:040120004203000096
:020000040000fa
:040124004203000092
:020000040000fa
:04012800420300008e
:020000040000fa
:04012c00420300008a
:020000040000fa
:040130004203000086
:020000040000fa
:040134004203000082
:020000040000fa
:04013800420300007e
:020000040000fa
:04013c00420300007a
:020000040000fa
:040140004203000076
:020000040000fa
:040144004203000072
:020000040000fa
:04014800420300006e
:020000040000fa
:04014c00420300006a
:020000040000fa
:040150004203000066
:020000040000fa
:040154004203000062
:020000040000fa
:04015800420300005e
:020000040000fa
:04015c00420300005a
:020000040000fa
:040160004203000056
:020000040000fa
:040164004203000052
:020000040000fa
:0402080042030000ad
:020000040000fa
:04020c0042030000a9
:020000040000fa
:0402100042030000a5
:020000040000fa
:0402140042030000a1
:020000040000fa
:04021800420300009d
:020000040000fa
:04021c004203000099
:020000040000fa
:040220004203000095
:020000040000fa
:040224004203000091
:020000040000fa
:04022800420300008d
:020000040000fa
:04022c004203000089
:020000040000fa
:040230004203000085
:020000040000fa
:040234004203000081
:020000040000fa
:04023800420300007d
:020000040000fa
:04023c004203000079
:020000040000fa
:040240004203000075
:020000040000fa
:040244004203000071
:020000040000fa
:04024800420300006d
:020000040000fa
:04024c004203000069
:020000040000fa
:040250004203000065
:020000040000fa
:040254004203000061
:020000040000fa
:04025800420300005d
:020000040000fa
:04025c004203000059
:020000040000fa
:040260004203000055
:020000040000fa
:040264004203000051
:020000040000fa
:04026800420300004d
:020000040000fa
:04026c004203000049
:020000040000fa
:040270004203000045
:020000040000fa
:040274004203000041
:020000040000fa
:04027800420300003d
:020000040000fa
:04027c004203000039
:020000040000fa
:040280004203000035
:020000040000fa
:040284004203000031
:020000040000fa
:04028800420300002d
:020000040000fa
:04028c004203000029
:020000040000fa
:040290004203000025
:020000040000fa
:040294004203000021
:020000040000fa
:04029800420300001d
:020000040000fa
:04029c004203000019
:020000040000fa
:0402a0004203000015
:020000040000fa
:0402a4004203000011
:020000040000fa
:0402a800420300000d
:020000040000fa
:0402ac004203000009
:020000040000fa
:0402b0004203000005
:020000040000fa
:0402b4004203000001
:020000040000fa
:0402b80042030000fd
:020000040000fa
:0402bc0042030000f9
:020000040000fa
:0402c00042030000f5
:020000040000fa
:0402c40042030000f1
:020000040000fa
:0402c80042030000ed
:020000040000fa
:0402cc0042030000e9
:020000040000fa
:0402d00042030000e5
:020000040000fa
:0402d40042030000e1
:020000040000fa
:0402d80042030000dd
:020000040000fa
:0402dc0042030000d9
:020000040000fa
:0402e00042030000d5
:020000040000fa
:0402e40042030000d1
:020000040000fa
:0402e80042030000cd
:020000040000fa
:0402ec0042030000c9
:020000040000fa
:0402f00042030000c5
:020000040000fa
:0402f40042030000c1
:020000040000fa
:0402f80042030000bd
:020000040000fa
:0402fc0042030000b9
:020000040000fa
:0403000042030000b4
:020000040000fa
:0403040042030000b0
:020000040000fa
:0403080042030000ac
:020000040000fa
:04030c0042030000a8
:020000040000fa
:0403100042030000a4
:020000040000fa
:0403140042030000a0
:020000040000fa
:04031800420300009c
:020000040000fa
:04031c004203000098
:020000040000fa
:040320004203000094
:020000040000fa
:040324004203000090
:020000040000fa
:04032800420300008c
:020000040000fa
:04032c004203000088
:020000040000fa
:040330004203000084
:020000040000fa
:040334004203000080
:020000040000fa
:04033800420300007c
:020000040000fa
:04033c004203000078
:020000040000fa
:040340004203000074
:020000040000fa
:040344004203000070
:020000040000fa
:04034800420300006c
:020000040000fa
:04034c004203000068
:020000040000fa
:040350004203000064
:020000040000fa
:040354004203000060
:020000040000fa
:04035800420300005c
:020000040000fa
:04035c004203000058
:020000040000fa
:040360004203000054
:020000040000fa
:040364004203000050
:020000040000fa
:100400008f8e20000e7f24000e0188000000000067
:10041000000020000000e000020032000001200087
:100420002002880014000700980007000000e00088
:1004300003003a0020e52000010020000200370000
:100440000000200001002000810f70000100320038
:1004500014000700000020000000e000020032004d
:100460000000020000000000c608020000000000ba
:100470000040da000000fe004440a9000000200017
:100480000000e0000300320000002000a00188000e
:100490004440a800000006008a1f78008b1f7800e7
:1004a0000000060091018800800478000000eb0045
:1004b0001a003700e284440032a0b4009905ba0063
:1004c000e284440032a0b4009906ba00e2844400f9
:1004d00032a0b4000006eb00476fde00fd07b2005b
:1004e000636ce10003003a00ebff07000000eb0043
:1004f0000a003700606ce10004003a00005deb0088
:100500008b05e900fdff3e00040037006168e10053
:10051000010032000086eb000b00070019c7ba008b
:100520001905ba000e04e00003003a000a00e000da
:10053000e0ff3a0000000600fe07b2009e018800be
:100540008a047800f5ff3700395dba008b05e900b1
:100550000c003200295dba008b05e900080032006a
:100560000c00e00003003a00e284440032a0b40032
:10057000f5ff370019ddba008b05e900faff3a00f4
:100580008904e800e184440032a0b40000000600c1
:10059000c80c040000000000340e0400000000003d
:1005a000280e040000000000f60a0400000000000d
:1005b000ea0a0400000000003600f800809fbe0038
:1005c000829fbe00849fbe00869fbe000000fa008e
:1005d0008560a9001bc8bf00030507000080fb0061
:1005e000004188000080fa004f03be004f02be00a9
:1005f0004f01be004f00be003600f900004006006b
:100600003600f800809fbe00829fbe00849fbe001f
:10061000869fbe000000fa00601680004300de00e6
:10062000614060000004a200614060000080fb00a7
:10063000610060004300dd00611680000130a10010
:1006400001007000601688000002eb0083002000ab
:1006500062af2000a1ae2000008e2000e70107005d
:100660001ae8b70087e0a9000080fa004f03be0037
:100670004f02be004f01be004f00be003600f90021
:10068000004006000040da000000fe000000050007
:10069000839f68000100e00002003d006000100040
:1006a000e08018000300e00002003d00600111003e
:1006b000e0811900140007004f00e00002003b0039
:1006c00060001000e080180000000600811f780024
:1006d0000100e00002003d0060001000e080180012
:1006e0000300e00002003d0060011100e0811900fc
:1006f000150007004f00e00002003b006000100002
:10070000e0801800000006006022b8000602200009
:100710000000d0008180d2000482d2008582d20005
:100720000000a0000202520083825a000300310040
:100730000202420083824a000000a1000603e90091
:10074000f3ff3a0000000600efff07000400be00c0
:04075000000006009f
:020000040000fa
:100754000800fa00000f780011079800220798009b
:1007640033079800218020003e0090004200dd0005
:10077400008040000080e80011002000010878009b
:10078400218020003e0090004200dd0000804000f7
:100794008000eb0001087800b300370021802000be
:1007a4003e0090004200dd00008040001000780010
:1007b400000040001e00400022802000be00900087
:1007c400c208dd008180e8008100410091007800ca
:1007d400818040001e01900081004100910078005a
:1007e400c408de00efc060008180fb00ef80600081
:1007f400c408dd0090017800f2f02f00028161004e
:100804008280700001087800218020003e00900062
:100814004200dd000080400010007800000040002d
:100824001e00400022802000be009000c208dd00af
:100834008180e80081004100910078008100e80097
:10084400818040001e0190008100410091007800e9
:10085400c408de00efc060008180fb00ef80600010
:100864009001780002ff2f000281610082807000f5
:1008740001087800218020003e0090004200dd0045
:100884000080e80000804000100078000000400074
:100894009e00900000804000100078004400de00bc
:1008a4006f4060008080fb00228020003e009000aa
:1008b4004200dd000080e8000000410010007800e4
:1008c4000000e800000040001e019000000041000c
:1008d400100078006f4060000080fb000100700091
:1008e400ef0f50000b003a00218020003e009000e2
:1008f4004200dd000080400010007800000040004d
:100904001e004000900078000190a10001087800ca
:100914000a003700218020003e0090004200dd00e4
:100924000080400010007800000040001e004000dd
:10093400900078000190a000010878002180200038
:100944003e0090004200dd000080e800008040008e
:10095400100078000000e800000040009e009000b5
:1009640000804000100078004400de006f4060000a
:100974008080fb00228020003e0090004200dd00c9
:100984000080e80000004100100078000080e800ca
:10099400000040001e01900000004100100078009b
:1009a4006f4060000080fb0001007000ef0f5000fa
:1009b4000b003a00218020003e0090004200dd0040
:1009c4000080400010007800000040001e0040003d
:1009d400900078000180a100010878000a00370027
:1009e400218020003e0090004200dd000080400095
:1009f40010007800000040001e00400090007800c5
:100a04000180a00001087800218020003e009000b1
:100a14004200dd000080e800008040001000780003
:100a24008080e800228020003e0090004200dd002b
:100a3400000041000080e8000108780021802000c7
:100a44003e0090004200dd0000804000100078006d
:100a54008000e800228020003e0090004200dd007b
:100a64000000410001087800218020003e00900031
:100a74004200dd0000804000900078002e009000cd
:100a8400808f500045ff3500a18020003e0090007b
:100a94004200dd00008040000080e8008040eb0060
:100aa40001487800a18020003e0090004200dd0053
:100ab400008040000080e8008040eb001140980076
:100ac4000080fa00000006000a00fa00000f780017
:100ad400214798002207980033079800440798009c
:100ae4004e009000000001000004e00016003200f7
:100af400a18020003e0090004200dd000080400004
:100b04000080e8008040eb0011409800a1802000a4
:100b14003e0090004200dd000080400011002000f3
:100b240001087800a18020003e0090004200dd0012
:100b3400008040000080e8008040eb00014878001d
:100b440010c0b30098003700a18020003e00900040
:100b54004200dd000080e800008040001040780082
:100b64000004a2000004e0003c003200a180200048
:100b74003e0090004200dd000080e800008040005c
:100b8400104090000080fb00000040001e00400068
:100b9400ae40900001487800a18020003e00900003
:100ba4004200dd000080e80000804000104090001a
:100bb4000004e0001a0032001e80e80010007800f3
:100bc4006f006000e50f50000d003a00a180200086
:100bd4003e0090004200dd00008040001100200033
:100be40001087800a18020003e0090004200dd0052
:100bf400008040000080e80011c0b3000148780084
:100c0400a18020003e0090004200dd0000804000f2
:100c14000080e8008040eb0011409800610037003c
:100c24001e0078009040780030c5b30080cf50009b
:100c340008003a00a18020003e0090004200dd0040
:100c4400008040000080e80011c0b300114098000b
:100c54005400370010c0b30053003700a1802000b7
:100c64003e0090004200dd0000804000100078004b
:100c74008000e800a28020003e0090004200dd00d9
:100c84000000410001087800a18020003e0090008f
:100c94004200dd00008040001000780000004000a9
:100ca4001e004000ae40900001487800a180200062
:100cb4003e0090004200dd000080400010007800fb
:100cc400000040001e0040009040780030c4b30093
:100cd40080cf50001d003a00a18020003e0090000b
:100ce4004200dd0000804000100078000000e900b0
:100cf400000040001e00400090007800000f20001b
:100d04008080600000032000808f50000f003a00b4
:100d1400a18020003e0090004200dd0000804000e1
:100d24001100200001087800a18020003e009000fe
:100d34004200dd00008040000080e8008040eb00bd
:100d44000148780020c0b30017003700a1802000bc
:100d54003e0090004200dd000080400090007800da
:100d64002e0090000000e900808f50000d003a0032
:100d7400a18020003e0090004200dd000080400081
:100d84001100200001087800a18020003e0090009e
:100d94004200dd00008040000080e8008040eb005d
:100da400014878000040eb000080fa0000000600d3
:100db4000600fa00000f78001107980042479800d7
:100dc4004e4090000004a2000004e000080032003d
:100dd4009e00780030c5b300010001009e00900021
:100de40010c0b3000100010050c0b30000e8b70018
:100df4000080fa00000006000c00fa0010079800ba
:100e04002107980032079800430798005407980078
:100e14005e0090006600b90080007800c08b20005e
:100e240000804000900078004e009000808f5000b9
:100e34005f0032005e0090006600b9008000780018
:100e4400c08b200000804000100078000000e0000b
:100e540002003a0050c0b30000e8b7005e00900002
:100e64006600b90000007800e4004000c08b200058
:100e740000804000104078000004e00019003200b7
:100e84005e0090006600b90080007800c08b2000ee
:100e940000804000100078009e0090000080400018
:100ea4009040780000cfb30000cf600000c8bf00be
:100eb400ef4060001e40780000c07000ae0090005b
:100ec400010001005e0090006600b9008000780017
:100ed400008c2000008040008040eb000148780036
:100ee4007f0037005e0090006600b9008000780043
:100ef400c08b200000804000100078009e0090000d
:100f0400008040001040780000c0ea0000e8b7000c
:100f14005e0090006600b90080007800c08b20005d
:100f240000804000100078009e0090000080400087
:100f340090407800400020000008dd00004f780059
:100f440000c8bf000080fb004400de0000407800c1
:100f54001e407000ae009000010001005e00900091
:100f64006600b90080007800008c200000804000fa
:100f740011c0b300014878005e0090006600b9001b
:100f840080007800c08b20000080400010007800b2
:100f94000001e8005e0090006600b900800078005f
:100fa400c08b200000804000020878004c0037000d
:100fb4005e0090006600b900000078008080e800c0
:100fc400c08b200000804000100078000000e0008a
:100fd40015003a0000c8bf00ef40600000c3b30032
:100fe40000c07000ae009000010001005e0090009f
:100ff4006600b900000078008080e800c08b200003
:1010040000804000100078000001e8005e009000bd
:101014006600b90080007800e08b2000008040006a
:10102400020878002e0037005e0090006600b900c8
:10103400000078008080e800c08b20000080400021
:1010440010007800e10f500012003a00ae0090004a
:1010540030c4b300010001005e0090006600b900d6
:10106400000078008080e800c08b200000804000f1
:10107400100078000001e8005e0090006600b900ee
:1010840080007800e08b2000008040000208780097
:10109400130037005e0090006600b90080007800fd
:1010a400e08b2000008040008000eb000108780005
:1010b4005e0090006600b90080007800c08b2000bc
:1010c400008040008000eb0001087800be00900022
:1010d4000040eb000100010010c0b3000100370024
:1010e4000040eb000080fa00000006000000fa0057
:1010f4001228ef000a003700904080002180200071
:101104004200dd00008040000080e8001100200063
:1011140001087800904080000000e80090408800ba
:1011240090408000e10f5000f3ff34001228ef00dc
:101134001000370090408000a18020004200dd00b4
:1011440000804000110020000108780090408000d9
:101154006600b90080007800008c20000080400008
:1011640011c0b30001487800904080000000e800fe
:101174009040880090408000e10f5000edff340063
:101184000080fa00000006001800fa00889fbe00e4
:10119400200f9800310f98001d0107006000b8006f
:1011a40010079800210798006000b80060079800b5
:1011b400710798000100370000000000004c2d006a
:1011c40011002000cf020700004180000000e00071
:1011d40015003a005c02070022c8bf000004a20008
:1011e4000004e0000200320010c0b30022e8b7009f
:1011f400c08d2000104078000080fb000000ea0051
:101204004f00de0000407800004f7800e08d2000a1
:10121400104078000080fb000000ea004f00de0070
:1012240000407800204f98001e049000ae04900007
:101234009e0078001e019000ae0190003e029000d6
:10124400ce0290000040eb006a000700cf80de0071
:101254000800400089804800100798002107980082
:101264001e009000ae009000024b200003002000fe
:1012740006fd070000007800300798001e0090006b
:10128400ae009000024b2000030020000efd07007a
:1012940000007800400798006e049000fe0490005f
:1012a400de0090006e019000fe0190000e0a900096
:1012b4009e0a900010c0b3004e000700cf80de00ed
:1012c4000800400089804800600798007107980072
:1012d4006e009000fe009000024b200003002000ee
:1012e400eafc070000007800000f98006e009000f0
:1012f400fe009000024b200003002000f2fc0700d7
:1013040000007800100f98001ac8bf000004e00025
:10131400310032003e0090004880de0080407800ba
:10132400008e2000014878003e0090008040780044
:10133400108e2000014878004e0090004880de00a6
:1013440080407800208e2000014878004e009000f4
:1013540080407800308e2000014878000e0890000c
:101364004880de0080407800408e200001487800ec
:101374000e08900080407800508e200001487800cc
:101384001e0890004880de0080407800608e2000b7
:10139400014878001e08900080407800708e20007c
:1013a40001487800b00480004f00de00004078005f
:1013b4000080fb0000f0a7000000ea000000ea0043
:1013c4004f00de00004078000041780061af20004b
:1013d400a0ae200076fe07005104800000402000eb
:1013e400008060000000e00073ff3200cc42a800df
:1013f40072ff37001200fa00604798004107980016
:10140400520798006307980074079800050f980026
:101414006e4090000004e0000c003a00200f8000b1
:1014240010079800500480004a00de00614060000c
:101434000080fb0000f0a7000000ea000000ea00c2
:101444004f00de0040479800100037006e409000c7
:10145400e14f50000c003a00a00f800010079800e4
:10146400600480004b00de00614060000080fb00ef
:1014740000f0a7000000ea000000ea004f00de00d0
:101484004047980001003700ffff37000e489000e6
:101494000004e000090032006e4090000080fb0070
:1014a40080004000c081200000804000f1ff270040
:1014b400010878000000eb00430037004e40900024
:1014c4000004e0002f0032009e0090006e40900067
:1014d4000080fb0000014000c081200000004100aa
:1014e40010007800808f50000a0036009e009000a3
:1014f4006e4090000080fb0000014000c08120008d
:10150400000041001000780000805000000f7800b7
:10151400120037009e0090006e4090000080fb0097
:1015240000014000c081200000004100100078004c
:10153400808f5000090031009e0090006e409000a2
:101544000080fb0000014000c08120000000410039
:101554001000780000805000000f78006e4090006a
:101564000004e00002003a008b40a9000e0037009e
:101574006e409000e14f50000b003a008d60a900ce
:10158400090037009e0090006e4090000080fb0030
:1015940000014000c08120000000410010007800dc
:1015a40000805000000f78006e4090000080fb0027
:1015b4009e00900000014000c08120000000410016
:1015c400010878001e0078000080fa000000060080
:1015d4000200fa00004f78001e80fb00a011880072
:1015e4000080fa00000006000200fa00004f7800b4
:1015f4001e80fb004f00dd00b104800001f0a1005b
:1016040001007000b00488000080fa0000000600a9
:101614000200fa00b5fe07004827ef000001200091
:10162400303a8800213a800000fe2f0000806000dc
:10163400203a8800213a8000f0f32f0000806000f7
:10164400203a880011028000f0f12f000080600031
:10165400100288004460a90081e0a90083e0a90089
:101664009580a90097e0a9009560a8009460a9005e
:10167400910580000000270001007000900588009b
:10168400410580000000270001007000400588002b
:1016940001068000f08f2f00808060000050200041
:1016a400010070000006880021058000f0ff28007a
:1016b4000080600020058800c842a900c862a90013
:1016c400c9e2a90071368000f00f2e00808060000e
:1016d400005020000100700070368800c962a80024
:1016e4002135800000fe2f0000806000b000b300b0
:1016f40020358800c8e2a800e134800000fe2f00f5
:10170400008060007000b300e0348800c902a800c3
:10171400e1348000f00f2e000080600000b0a000d3
:10172400e0348800c942a8000135800000fe2f0083
:1017340000806000a000b30000358800c922a80022
:1017440001358000f00f2e008080600000902000a2
:101754000100700000358800c982a900c042a900b8
:10176400c062a900c9a2a900c9c2a900713680003b
:1017740000fe2f00008060002001b3007036880056
:10178400c882a9002136800000fe2f00008060007e
:101794003001b300203688000080eb006019880017
:1017a40070a7a90021e2a80021a2a9002182a90012
:1017b4002162a80001118000f0cf2f00008060009a
:1017c4000011880020c2a90020a2a9002082a9003b
:1017d400f00020004011880070c7a90031e2a80081
:1017e40031a2a9003182a9003162a80081118000d0
:1017f400f0cf2f00008060008011880030c2a90063
:1018040030a2a9003062a8003082a900f0002000b4
:10181400c011880023e2a8002342a8008580a90003
:1018240033e2a8003342a80087e0a9001111800028
:10183400f0f32f00008060001011880022a2a9009c
:101844008560a900e1a1a900010f800000702000bb
:1018540001007000000f8800e0e1a900e0c1a900c8
:10186400e0a1a900e161a8000080eb00300f88002e
:10187400f0ff2700200f88008b40a900f1a1a900e8
:10188400810f80000070200001007000800f88002c
:10189400f0e1a900f0c1a900f0a1a900f161a8003c
:1018a4000080eb00b00f8800f0ff2700a00f880035
:1018b4008d60a9001061a900800880004300de004b
:1018c400614060000080fb00610060004600dd00b4
:1018d400810880000160a100010070008008880078
:1018e400800880004600de00614060000080fb004c
:1018f4006100600000004000810880000110a10028
:10190400010070008008880011e1a800210c80000b
:1019140080ff2f00008060006000b300200c88006e
:1019240085a1a8008461a9000080eb0060088800fc
:10193400510c800080ff2f00008060006000b30025
:10194400500c88008ba1a8008a61a9000080eb00dc
:10195400600888000000eb00000f780005003700e5
:10196400608220001e0040008040eb0001487800a7
:101974001e0fe800500920009e007800808f500060
:10198400f7ff34000080fa00000006000200fa00ad
:1019940010118000640060000000e00004003a00c0
:1019a40010118000620060000000e0000a003200b4
:1019b40030118000004f78008080200000118800e2
:1019c400000022001011880021e2a8002342a80090
:1019d40010c0b300010037000040eb000080fa00a3
:1019e400000006000400fa00204798000040eb00c5
:1019f400004f7800301180001047980084cc2000fc
:101a04008001eb00920020009e409000808c20001a
:101a14002dfc0700004f78001e407800e14f500075
:101a240002003a001868ef00120037001e407800e8
:101a3400e24f500005003a0018c8bf00e84f5000bc
:101a4400020032001868ef000a00370014c8bf0013
:101a54008040780018c8bf0001417800ae40900073
:101a64000f00070014e8b70018c8bf000040e800e2
:101a740018e8b7001e407800e24f500005003a0015
:101a840018c8bf00e94f500002003a002468ef0074
:101a94001868ef0024c8bf000080fa0000000600a8
:101aa4000600fa0020479800314798004247980002
:101ab4004e4090000004e0001c003a002e409000cc
:101ac400e34f500017003a00504680004400de0007
:101ad4006f4060000080fb004400dd00804078001f
:101ae400604680004400de006f40600000c070006b
:101af400004f78003e4090009e40780080cf500018
:101b040008003a001e80fb00680060000000e0004e
:101b14000200320010c0b30015e8b70010c0b300d3
:101b2400070037000040eb00050037004e409000ee
:101b34000080fb000000ea004f00de000040780057
:101b44000080fa00000006000000fa0024c8bf006c
:101b54000004a2000004e0000b00320010c0b30037
:101b640024e8b70014c8bf000004e00005003200f8
:101b74008001eb0032002000818c2000a08d200029
:101b8400f3fa07001468ef000080fa000000060072
:101b94000400fa00204798000040eb00004f780052
:101ba40015c8bf000004e000260032002e4090005b
:101bb4000004a2000004e0001200320025c8bf00a7
:101bc4000004e0000f0032002568ef00a00480004c
:101bd4004c00de00614060000080fb0000f0a700c4
:101be4000000ea000000ea004f00de000040780038
:101bf4000041780041e3200080e220006cfc0700f3
:101c0400100037002e4090000004e0000d00320068
:101c14000002eb008300200042e3200081e2200068
:101c2400008e200074fc0700004f78001e407800ee
:101c34000004e000030032001568ef0010c0b30098
:101c440025e8b7000080fa00000006000200fa0050
:101c5400004f78001e80fb00201188000080fa00ed
:101c6400000006000200fa00004f78001e80fb000e
:101c7400610060004c00dd00a104800001c0a100ef
:101c840001007000a00488000080fa000000060033
:101c94000000fa001468ef000080fa00000006005b
:020000040000fa
:101ca400bc0800002c000000000000000008000038
:101cb40014000000000000002408000002000000de
:101cc40002000000010100001408000006000000ea
:101cd400000000002608000096000000000000003c
:101ce4001a08000006000000020000000180ff0046
:101cf4007fff7f00200800000400000000000000b7
:041d040000000000db
:020000040000fa
:101d0800f03fb1000180b10006003500ee03090084
:101d180000000000403fb1000180b100fbff3d0022
:101d28001000b000203fb00002003500008009001c
:081d380000000000000006009d
:020000040000fa
:0200000401f009
:04000000ffff0000fe
:020000040000fa
:0200000401f009
:04000400ffff0000fa
:020000040000fa
:0200000401f009
:04000800ffff0000f6
:020000040000fa
:0200000401f009
:04000c008000000070
:020000040000fa
:0200000401f009
:0400100043000000a9
:020000040000fa
:0200000401f009
:040014005f00000089
:020000040000fa
:0200000401f009
:04001800970000004d
:020000040000fa
:0200000401f009
:04001c00dfff000002
:00000001FF
