:020000040000fa
:080000000002040000000000f2
:020000040000fa
:04000800920500005d
:020000040000fa
:04000c009205000059
:020000040000fa
:040010009205000055
:020000040000fa
:040014009205000051
:020000040000fa
:04001800920500004d
:020000040000fa
:04001c009205000049
:020000040000fa
:040020009205000045
:020000040000fa
:040024009205000041
:020000040000fa
:04002800920500003d
:020000040000fa
:04002c009205000039
:020000040000fa
:040030009205000035
:020000040000fa
:04003400d4020000f2
:020000040000fa
:04003800920500002d
:020000040000fa
:04003c009205000029
:020000040000fa
:040040009205000025
:020000040000fa
:040044009205000021
:020000040000fa
:04004800920500001d
:020000040000fa
:04004c009205000019
:020000040000fa
:040050009205000015
:020000040000fa
:04005400240500007f
:020000040000fa
:040058006805000037
:020000040000fa
:04005c009205000009
:020000040000fa
:040060009205000005
:020000040000fa
:040064009205000001
:020000040000fa
:0400680092050000fd
:020000040000fa
:04006c0092050000f9
:020000040000fa
:0400700092050000f5
:020000040000fa
:04007400b0040000d4
:020000040000fa
:0400780092050000ed
:020000040000fa
:04007c0092050000e9
:020000040000fa
:0400800092050000e5
:020000040000fa
:0400840092050000e1
:020000040000fa
:0400880092050000dd
:020000040000fa
:04008c0092050000d9
:020000040000fa
:0400900092050000d5
:020000040000fa
:0400940092050000d1
:020000040000fa
:0400980092050000cd
:020000040000fa
:04009c0092050000c9
:020000040000fa
:0400a00092050000c5
:020000040000fa
:0400a40092050000c1
:020000040000fa
:0400a80092050000bd
:020000040000fa
:0400ac0092050000b9
:020000040000fa
:0400b00092050000b5
:020000040000fa
:0400b40092050000b1
:020000040000fa
:0400b80092050000ad
:020000040000fa
:0400bc0092050000a9
:020000040000fa
:0400c00092050000a5
:020000040000fa
:0400c40092050000a1
:020000040000fa
:0400c800920500009d
:020000040000fa
:0400cc009205000099
:020000040000fa
:0400d0009205000095
:020000040000fa
:0400d4009205000091
:020000040000fa
:0400d800920500008d
:020000040000fa
:0400dc009205000089
:020000040000fa
:0400e0009205000085
:020000040000fa
:0400e4009205000081
:020000040000fa
:0400e800920500007d
:020000040000fa
:0400ec009205000079
:020000040000fa
:0400f0009205000075
:020000040000fa
:0400f4009205000071
:020000040000fa
:0400f800920500006d
:020000040000fa
:0400fc009205000069
:020000040000fa
:040100009205000064
:020000040000fa
:040104009205000060
:020000040000fa
:04010800920500005c
:020000040000fa
:04010c009205000058
:020000040000fa
:0401100000040000e7
:020000040000fa
:040114009205000050
:020000040000fa
:04011800920500004c
:020000040000fa
:04011c009205000048
:020000040000fa
:040120009205000044
:020000040000fa
:040124009205000040
:020000040000fa
:04012800920500003c
:020000040000fa
:04012c009205000038
:020000040000fa
:040130009205000034
:020000040000fa
:040134009205000030
:020000040000fa
:04013800920500002c
:020000040000fa
:04013c009205000028
:020000040000fa
:040140009205000024
:020000040000fa
:040144009205000020
:020000040000fa
:04014800920500001c
:020000040000fa
:04014c009205000018
:020000040000fa
:040150009205000014
:020000040000fa
:04015400580400004b
:020000040000fa
:04015800920500000c
:020000040000fa
:04015c009205000008
:020000040000fa
:040160009205000004
:020000040000fa
:040164009205000000
:020000040000fa
:04020800920500005b
:020000040000fa
:04020c009205000057
:020000040000fa
:040210009205000053
:020000040000fa
:04021400920500004f
:020000040000fa
:04021800920500004b
:020000040000fa
:04021c009205000047
:020000040000fa
:040220009205000043
:020000040000fa
:04022400920500003f
:020000040000fa
:04022800920500003b
:020000040000fa
:04022c009205000037
:020000040000fa
:040230009205000033
:020000040000fa
:04023400d4020000f0
:020000040000fa
:04023800920500002b
:020000040000fa
:04023c009205000027
:020000040000fa
:040240009205000023
:020000040000fa
:04024400920500001f
:020000040000fa
:04024800920500001b
:020000040000fa
:04024c009205000017
:020000040000fa
:040250009205000013
:020000040000fa
:04025400240500007d
:020000040000fa
:040258006805000035
:020000040000fa
:04025c009205000007
:020000040000fa
:040260009205000003
:020000040000fa
:0402640092050000ff
:020000040000fa
:0402680092050000fb
:020000040000fa
:04026c0092050000f7
:020000040000fa
:0402700092050000f3
:020000040000fa
:04027400b0040000d2
:020000040000fa
:0402780092050000eb
:020000040000fa
:04027c0092050000e7
:020000040000fa
:0402800092050000e3
:020000040000fa
:0402840092050000df
:020000040000fa
:0402880092050000db
:020000040000fa
:04028c0092050000d7
:020000040000fa
:0402900092050000d3
:020000040000fa
:0402940092050000cf
:020000040000fa
:0402980092050000cb
:020000040000fa
:04029c0092050000c7
:020000040000fa
:0402a00092050000c3
:020000040000fa
:0402a40092050000bf
:020000040000fa
:0402a80092050000bb
:020000040000fa
:0402ac0092050000b7
:020000040000fa
:0402b00092050000b3
:020000040000fa
:0402b40092050000af
:020000040000fa
:0402b80092050000ab
:020000040000fa
:0402bc0092050000a7
:020000040000fa
:0402c00092050000a3
:020000040000fa
:0402c400920500009f
:020000040000fa
:0402c800920500009b
:020000040000fa
:0402cc009205000097
:020000040000fa
:0402d0009205000093
:020000040000fa
:0402d400920500008f
:020000040000fa
:0402d800920500008b
:020000040000fa
:0402dc009205000087
:020000040000fa
:0402e0009205000083
:020000040000fa
:0402e400920500007f
:020000040000fa
:0402e800920500007b
:020000040000fa
:0402ec009205000077
:020000040000fa
:0402f0009205000073
:020000040000fa
:0402f400920500006f
:020000040000fa
:0402f800920500006b
:020000040000fa
:0402fc009205000067
:020000040000fa
:040300009205000062
:020000040000fa
:04030400920500005e
:020000040000fa
:04030800920500005a
:020000040000fa
:04030c009205000056
:020000040000fa
:0403100000040000e5
:020000040000fa
:04031400920500004e
:020000040000fa
:04031800920500004a
:020000040000fa
:04031c009205000046
:020000040000fa
:040320009205000042
:020000040000fa
:04032400920500003e
:020000040000fa
:04032800920500003a
:020000040000fa
:04032c009205000036
:020000040000fa
:040330009205000032
:020000040000fa
:04033400920500002e
:020000040000fa
:04033800920500002a
:020000040000fa
:04033c009205000026
:020000040000fa
:040340009205000022
:020000040000fa
:04034400920500001e
:020000040000fa
:04034800920500001a
:020000040000fa
:04034c009205000016
:020000040000fa
:040350009205000012
:020000040000fa
:040354005804000049
:020000040000fa
:04035800920500000a
:020000040000fa
:04035c009205000006
:020000040000fa
:040360009205000002
:020000040000fa
:0403640092050000fe
:020000040000fa
:100400000fca20000e7f24000e01880000000000ab
:10041000000020000000e000020032000001200087
:100420002002880014000700c00107000000e0005f
:1004300003003a00c0d8210001002000020037006c
:100440000000200001002000810f70000100320038
:1004500014000700000020000000e000020032004d
:1004600000000200000000000c0c02000000000070
:100470000040da000000fe004440a9000000200017
:100480000000e0000300320000002000a00188000e
:100490004440a800000006008a1f78008b1f7800e7
:1004a0000000060091018800800478000000eb0045
:1004b0001a003700e284440032a0b4009905ba0063
:1004c000e284440032a0b4009906ba00e2844400f9
:1004d00032a0b4000006eb00476fde00fd07b2005b
:1004e000636ce10003003a00ebff07000000eb0043
:1004f0000a003700606ce10004003a00005deb0088
:100500008b05e900fdff3e00040037006168e10053
:10051000010032000086eb000b00070019c7ba008b
:100520001905ba000e04e00003003a000a00e000da
:10053000e0ff3a0000000600fe07b2009e018800be
:100540008a047800f5ff3700395dba008b05e900b1
:100550000c003200295dba008b05e900080032006a
:100560000c00e00003003a00e284440032a0b40032
:10057000f5ff370019ddba008b05e900faff3a00f4
:100580008904e800e184440032a0b40000000600c1
:100590000a1a040000000000fe1904000000000018
:1005a000201a0400000000003600f800809fbe0002
:1005b000829fbe00849fbe00869fbe002600fa0078
:1005c0008460a90010922900100888003041800042
:1005d0000000e80030418800314180001003200015
:1005e000808f50007f0036002628ef006000b800a2
:1005f00010079800210798006000b80030079800a5
:10060000410798000000eb00000f7800340037002d
:10061000e08320001e004000104078000004a2008b
:100620000004e0001d003200e08320001e004000b6
:10063000104078000004a2000004e000270032000f
:1006400021408000e0012000000178001100090035
:100650008200d8008000fd00ef0f500006003c0033
:100660000e80e8000200200003f82b009e007800b6
:100670008d040700050037000e80e800020020000e
:1006800003f823009e0078008704070020408000c4
:100690000000e8002040880010003700ea00470012
:1006a000720047001e017800ab0407008e81e8004d
:1006b0006a014700210220008e804000720047003e
:1006c0001e027800510507008e80e80020022000fd
:1006d0000e0040001e017800dc0707001e0fe80036
:1006e0001e007800e10f5000c9ff36000e80e800c0
:1006f000bf0b07003cc8bf000004e0003900320017
:100700001e1090004800de008040780080c9200064
:10071000014878001e1090008040780090c92000a9
:10072000014878002e1090004800de0080407800dc
:10073000a0c92000014878002e1090008040780069
:10074000b0c92000014878001e009000ae00900063
:10075000c40107000040780080407800c0c9200034
:10076000014878003e009000ce009000bd010700d7
:100770000040780080407800d0c92000014878000f
:10078000101680000000d1006140600080407800b9
:10079000e0c9200001487800101680000040780071
:1007a0006140600080407800f0c920000148780076
:1007b000b00480004f00de00004078000080fb00a5
:1007c00000f0a7000000ea000000ea004f00de0091
:1007d0000040780000417800a1a02100e09f2100a6
:1007e000130a07000080fa004f03be004f02be004c
:1007f0004f01be004f00be003600f9000040060069
:10080000809fbe00829fbe00849fbe00869fbe0068
:100810000000fa00010f80000080200000806000ce
:100820000000e0000e003200008420003002be0014
:100830002003be0010002000010020006011b8005d
:100840000000420081804a0002014b0083814b007e
:1008500004842000009abe000292be000d00370002
:10086000008420003002be002003be00f0ff2f00f5
:10087000f1ff2f000001be000000420081804a000d
:1008800002014b0083814b0004842000009abe00cb
:100890000292be008b40a9000080fa004f03be0008
:1008a0004f02be004f01be004f00be0000400600d8
:1008b000809fbe00829fbe00849fbe00869fbe00b8
:1008c0000000fa00810f800000802000008060009e
:1008d0000000e0000e003200808420003002be00e4
:1008e0002003be0010002000010020006011b800ad
:1008f0000000420081804a0002014b0083814b00ce
:1009000084842000009abe000292be000d003700d1
:10091000808420003002be002003be00f0ff2f00c4
:10092000f1ff2f000001be000000420081804a005c
:1009300002014b0083814b0084842000009abe009a
:100940000292be008d60a9000080fa004f03be0035
:100950004f02be004f01be004f00be000040060027
:10096000809fbe00829fbe00841f78000000fa00b6
:100970008660a900101680000000d1006140600070
:100980008080fb00e0832000104078000004a2007b
:100990000080fb00008060000000e0000d003200dd
:1009a00000802000000c8800c442a900cd82a9006c
:1009b000048420006000b8006011b800009abe00f6
:1009c0000292be00e421ef00e083200011c0b300da
:1009d00001487800101680000040780061406000f7
:1009e0008080fb00f0832000104078000004a2000b
:1009f0000080fb00008060000000e0000d0032007d
:100a000000802000300c8800c462a900cda2a9009b
:100a1000848420006000b8006011b800009abe0015
:100a20000292be00f421ef00f083200011c0b30059
:100a3000014878000080fa004f0278004f01be00a4
:100a40004f00be00004006003600f800809fbe0048
:100a5000829fbe00849fbe00869fbe000000fa00f9
:100a60008560a900301180000040780004a22100b8
:100a70008001eb00d20020008040780040c72000b9
:100a8000b1080700601680004300de00614060008e
:100a90000004a200614060000080fb006100600073
:100aa0004300dd00611680000130a10001007000ec
:100ab000601688000080fa004f03be004f02be009f
:100ac0004f01be004f00be003600f9000040060096
:100ad0003600f800809fbe00829fbe00849fbe004b
:100ae000869fbe000000fa000002eb008300200099
:100af000a2a02100e19f210080c920005e0907001b
:100b00003ce8b7008580a9000080fa004f03be00d2
:100b10004f02be004f01be004f00be003600f9007c
:100b2000004006000040da000000fe000000050062
:100b300003f0a200889fbe008a9fbe008c1f780031
:100b400081010700880133006450e1004f0032004a
:100b50006420e1005200320003826c0007003b0079
:100b60000905d0000306d000820f54000c065d007a
:100b70000200390002003200890178000306780083
:100b80008582550004003d000003fd008103fd0047
:100b90008502ea008b854200840f720002003b0050
:100ba00060001000e08018006011b8000005eb0044
:100bb0007a28e1000a00390006007800c75ddd00f0
:100bc000f707b200878075002d0037008281710021
:100bd0000a017800610560008180d1000080d300a7
:100be0008502e900f9ff3b000604400087844800c5
:100bf00002003b0060041400e0841c000988a3008c
:100c0000070032008a8171008281710061016400f5
:100c10008904d1000884d3008b05e8001700370051
:100c20000978a30013003a000b00e0001300340021
:100c30008b05e9000804440089844c000a447400d0
:100c40000978a3000d003a000b00e0000700340013
:100c50008b05e9000804440089844c0001003a0037
:100c60000b0020000978a300f7ff32000001eb0021
:100c700002003700828171000a017800f700070046
:100c80000cf0a70001f0a000400137006420e10053
:100c900002003a00838f6c00400133000801be005f
:100ca0000200be0039013700889fbe008a9fbe0047
:100cb0008c1f7800240107002b01330003866c0091
:100cc0006450e1002e0032006420e1003300320065
:100cd0006150e1002f0032006120e100310032005c
:100ce00085855500eb07b0000900200008042000ae
:100cf000050037000804440089844c000a003100d4
:100d00000603430087834b000001530081815b0091
:100d1000f8ff33000203be000800a00008044400ee
:100d200089844c00f6ff3900c639dd008301730069
:100d300001003200130020008904d1000884d30090
:100d40000998a300050032000800a7000300a000d6
:100d50008904d1000884d3008b05e8008904d10000
:100d60000884d3000001eb000281d200bb00070021
:100d700001f0a1000cf0a70001f0a0000301370072
:100d80006420e100050132000801be000200be003f
:100d9000f7ff37006120e100000132006000b80079
:100da000f3ff37000000200001f82700f0ff3700b4
:100db000140020005b023700f4ff2f0059023700b7
:100dc0000003be00cb0007006011b8000470a7004c
:100dd00007f0a1006509b1001b00320012003500c8
:100de000860220000628e10008003500f3ff2700f6
:100df000f2ff2f006110b9000700e00018003b006f
:100e0000030028006000b800020005000000400058
:100e10008180480002014900838149008502e90080
:100e2000faff3a0008003700f88f420002003c0049
:100e30008000eb00000005008100d1000080d3009d
:100e40008502e800fcff3a000700e00004003b00d8
:100e500060001000e080180060011900e0811900b6
:100e6000000006000001be00a20007000470a700f9
:100e700003f0a1006509b100160032000d00350035
:100e80006828e10006003500f0ff2f00f1ff270081
:100e90000300e00013003b000100280000000500f3
:100ea00000004000818048008502e900fcff3a0014
:100eb00008003700f88f420002003c008000eb0081
:100ec000000005008100d1000080d3008502e80009
:100ed000fcff3a000300e00002003b00600010004d
:100ee000e0801800000006000001be00810007003d
:100ef0000470a70003f0a10003f8a30013003a0058
:100f00006509b10010003200090035006928e100d0
:100f1000020035000100280000000500000040002c
:100f2000818048008502e900fcff3a0000000600cd
:100f3000f88f4200050035008100d1000080d30009
:100f40008502e800fcff3a00000006008000eb008c
:100f500000000500881f7800030478000300e0000b
:100f600007003d0060001000e080180060011900db
:100f7000e081190002003b0001f02d000300370062
:100f80000700070008f0a70001f0a0004f04780058
:100f9000000006004f89de0082017800edff370077
:100fa000889fbe008a9fbe0000827000040271000c
:100fb00004827100260032000004be000200be0060
:100fc0006011b8006b092000950220000182cf005b
:100fd0000a0039000541b1000082cf000700390046
:100fe0000541b1000982cf00040039000541b1007c
:100ff0000882cf00010039000541b10005425200ce
:10100000120032000a003b0082817100610164001d
:101010008100d1000080d3008984d3000884d300ec
:101020008b05e8000442e800f7ff3a0007003700ac
:101030000804440089844c00000048008180480076
:101040008b05e9000442e900f9ff3a0003000700bc
:101050004f05be004f04be000000060081002000c6
:10106000618055000b003d000b00200061fe2f0049
:101070000100e1001d003400828171006101640003
:101080008904d1000884d3000000e800faff3a0088
:101090007100200061006400030070000200600025
:1010a0000900320061044400e0844c000988a50076
:1010b000050032008b05e8006808e10002003a00f4
:1010c0008904d1000884d300f20f20000258e10007
:1010d00005003d00c75ddd00f907b200898075009d
:1010e00008007800000006000bf827008b0078004d
:1010f00000000500c70ade00f107b200f50fb200dc
:1011000008003200e1cf4200020032000170a0006e
:1011100024000500810f7000010032000408050062
:1011200044000500810f700002003a001400050021
:101130008502e9000000400081c04800fcff3b0040
:101140000170a000240005000004be00e9ff0700b4
:101150000003be000405be000200be00e5ff07005c
:10116000844f7500000006000200be006450e100dc
:10117000050036006420e100020036000968a30083
:1011800001003a000800be000160a0004f06780090
:101190004f05be004f04be0000000600f0ff2f0008
:1011a000f1ff2700f9ff3700889fbe008a9fbe002d
:1011b0008c1f7800e4ff0700ebff330003866c0010
:1011c0006450e100240032006420e1002700320076
:1011d0006150e100220032006120e1002100320074
:1011e0008b854200eb07b1000134b800003ab8002b
:1011f0000804420089844a00013ab8000030b8006f
:101200008880400009014a000400330000004000cb
:1012100081804800020149008b05e900c909dd0011
:10122000830170000100320013002000c814de00aa
:101230004814dd004709de001200b200c808de00d5
:101240000884700085ff070001f0a1000cf0a700e2
:1012500001f0a000cdff37006120e100cfff320098
:101260000801be000200be00f7ff37006150e10038
:10127000fcff3a00c9ff3700889fbe008a9fbe006e
:1012800030044200b0844a0030054b0090854b008a
:101290006000b1000898be000a90be000440e10062
:1012a00005c8e10006d0e10007d8e10002003100e6
:1012b000680040001008e8004f05be004f04be0063
:1012c00000000600889fbe008a9fbe003004be005a
:1012d0002005be000418540005985c0006185d0047
:1012e00007985d00110020000440e10005c8e100fe
:1012f00006d0e10007d8e100010039008000eb00d2
:10130000108810004f05be004f04be00000006000c
:101310001200fa00889fbe008a9fbe008c9fbe000c
:10132000e0b79f00f1b79f0082bf9f0093bf9f006f
:101330000605be000404be000000eb00d0b79f000d
:10134000c0b79f00b0b79f00a0b79f0090b79f00a5
:101350000006eb005fb19700cfb09700820141001b
:101360003fb097000200e00004003d003700070096
:101370007e805700c0ff07000300370033000700de
:101380007e805700cfff0700dfb697000d00e0001a
:101390000c0035006fb29700ffb297000fbb9700ab
:1013a0009fbb970010002000010020006011b800d2
:1013b0000002720081827200020373008383730053
:1013c0001b0007000c06e80001042000810f5600f6
:1013d000e0ff3a000d00e00004003d000802be00fe
:1013e0000a03be007e805700a3ff07005fa8970096
:1013f0000000e00005003a001fb29700afb297006e
:101400003fb39700cfb39700090007006fb0970074
:10141000ffb097000fb997009fb997004f06be0025
:101420004f05be004f04be000080fa000000060019
:101430000100070000000600a4b79f00b5b79f0099
:10144000c6b79f00d7b79f00000006004f09de0017
:1014500082817100b3b79f004f01de0081804000a0
:1014600082807000a1b79f008fb097004f09de0007
:10147000000040000200700090b79f007fa8970016
:101480004f01de00818040008280700081b79f00a4
:101490000d0007004f3ade0000004000040070001d
:1014a000f0af9f00080007000402420085824a0056
:1014b00006034b0087834b00dfff07000802be00d6
:1014c0000a03be00000006002fb29700bfb29700cb
:1014d0004fb39700dfb3970000000600881f780025
:1014e00018002000881f780089ff07008f87e90017
:1014f0004f04780000000600801feb0084ff070007
:101500008f87e90000000600889fbe008a9fbe000a
:10151000e00f5000e08f5800e00f5900e08f5900b5
:101520000c003d006044b8006055b8000000540055
:1015300081805c0002015d0083815d001800200055
:101540001500070008003d00180007000004eb002c
:10155000050037000004eb000f00070002003d000b
:101560001200070018002000dcff07000800e00060
:10157000060032006022b8006033b800000052005c
:1015800081805a0002015b0083815b004f05be0031
:101590004f04be0000000600e00f5200e08f5a002a
:1015a000e00f5b00e08f5b00000006006044b800c5
:1015b0006055b8000402540085825c0006035d009b
:1015c00087835d0000000600889fbe008a9fbe00e2
:1015d0008c1f7800e00f5000e08f5800e00f59009a
:1015e000e08f59000d003d006044b8006055b80020
:1015f0000000540081805c0002015d0083815d0079
:101600001c0020000820e10009a8e1000ab0e10068
:101610000bb8e1000d003d00080037000006eb00ac
:10162000e00f5200e08f5a00e00f5b00e08f5b009c
:1016300006003d006044b8006055b8000402540044
:1016400085825c0006035d0087835d00aaff0700ba
:101650000c00e000060032006022b8006033b800e1
:101660000000520081805a0002015b0083815b0010
:101670004f0678004f05be004f04be000000060074
:10168000889fbe008a9fbe008c1f78000006eb007a
:10169000e00f5000e08f5800e00f5900e08f590034
:1016a00007003d006044b8006055b80000005400d9
:1016b00081805c0002015d0083815d001c002000d0
:1016c000e00f5200e08f5a00e00f5b00e08f5b00fc
:1016d00007003d006044b8006055b80004025400a3
:1016e00085825c0006035d0087835d000c00a2001c
:1016f000270007000c00e000060032006022b8005e
:101700006033b8000000520081805a0002015b0083
:1017100083815b004f0678004f05be004f04be007a
:1017200000000600889fbe008a9fbe00841f7800cc
:1017300085fe07004f00780011003300f0ff2f00f6
:10174000838f6c0006003b00040565000a00a700bb
:101750000800370009f0a60010002000080037003c
:10176000820f5400838f5c000300390010002000ba
:1017700001003e000000200009f0a7000000ea0080
:101780004f05be004f04be000000e0000000060050
:10179000889fbe008a9fbe008c9fbe000404b800d4
:1017a0000506b8008904460060854e000606b800ac
:1017b0000a054600e0854e000706b8008b05460086
:1017c000040eb800890446000a854e00e0854d00ed
:1017d000050eb8000a0546008b854e00060eb800bf
:1017e0008b0546000416b8000a0546008b854e009e
:1017f0000516b8008b054600041eb8008b05460090
:101800000800be000a01be004f06be004f05be0024
:081810004f04be0000000600b9
:020000040000fa
:101818000400fa00000f780011079800ce060700b0
:101828000f0807003d080700790807000085200019
:10183800170707008001eb005200200041c7200075
:10184800e0c820006004070000c9200010407800ac
:101858000080fb00c800dd0020c92000104078008f
:101868000080fb00010070000040880040c9200093
:10187800104078000080fb00c800dd0060c920002f
:10188800104078000080fb000100700010408800c4
:1018980000d4200031002000ae080700e5ff370023
:1018a8000800fa00881f7800000f780011079800d8
:1018b80022079800330798001e0090000000e000ff
:1018c800050032001e009000e10f500002003200b7
:1018d80020002000f90307001e0090004200dd00f0
:1018e8001e0440001e0090000080e80080004000b8
:1018f800008520000080400010007800cf80de00c6
:10190800a2fd07002e019000be01900024fe0700f2
:10191800008cbe001e009000800040000085200062
:1019280000804000100078000000e00005003a0048
:101938001e0090004200dd001e0140006000b8005b
:101948000089be004f0478000080fa0000000600fd
:101958000600fa00889fbe00000f78001107980063
:10196800220798002e0090000000e00005003200d9
:101978002e009000e10f50000200320020002000ed
:10198800ce0307002e0090000000e00014003a008b
:10199800008420005001be004000be000203be00cb
:1019a8000002be00860378000503780084027800f0
:1019b8000002eb00200f80008000eb006011b800ef
:1019c8000000420081804a0002014b0083814b00e5
:1019d8001e027800009abe000292be001400370072
:1019e8009e04780068844400808420005001be0072
:1019f8004000be000203be000002be00860378005d
:101a080005037800840278000002eb00a00f800034
:101a18008000eb006011b8000000420081804a009d
:101a280002014b0083814b00009cbe000294be0063
:101a38002e009000760040008000400000852000c5
:101a48000080400010007800e10f500010003a00bc
:101a58002e0090004300dd001e0440002e00900080
:101a68004300dd001e0040005001be004000be00e3
:101a78006022b8006033b8000000520081805a002c
:101a880002015b0083815b00009cbe000294be00e3
:101a98002e0190009e0090001e00780003000700b1
:101aa8004f04be000080fa00000006000e00fa0095
:101ab800889fbe0040079800510798006207980069
:101ac80000448000cf80de0030fd070002002000c7
:101ad80003082400b2fd07000001be00000020003a
:101ae80001f823006efc0700d2cc2c00c3d42300dd
:101af8006bfc07000200200003272400a8fd070054
:101b08000004be0010448000cf80de001ffd0700e7
:101b18000200200003082400a1fd07000001be0008
:101b28000000200001f823005dfc0700d2cc2c0047
:101b3800c3d423005afc0700020020000327240016
:101b480097fd0700088fbe0020079800310798000e
:101b58006e0090004200dd00de009000008440002e
:101b68006e0090004300dd00ce0090000080400031
:101b78003002be002003be006e0090004300dd006e
:101b880081c52000008040005001be004000be001a
:101b98000000520081805a0002015b0083815b00d3
:101ba800eafc07000002be006e0090004200dd0063
:101bb800000047001000be000001be000400be0087
:101bc80077fd0700008cbe006e0090004300dd002a
:101bd800ce009000008040005001be004000be00d2
:101be8006e02900085c520004322dd000482420079
:101bf800009abe000292be004f04be000080fa00a8
:101c0800000006001800fa00889fbe008a9fbe00e8
:101c18008c9fbe006007980071079800020f98001b
:101c2800130f9800240f98002e0890000000e00081
:101c3800050032002e089000e10f5000020032002b
:101c4800200020001d0307002e099000fe009000d0
:101c58006e009000af010700009fbe000297be0013
:101c68002e0890004300dd0081c420000080400061
:101c78005001be004000be003e02be002e03be0062
:101c88000000520081805a0002015b0083815b00e2
:101c980024032000050020006033b80018fe070068
:101ca800aafc07004007980051079800e18120002e
:101cb8002e0890004200dd00008040001004be00a5
:101cc8002e0890004300dd0081c420000080400001
:101cd8003002be002003be003e004200be804a0023
:101ce8003e014b009e814b006e00b1002403200092
:101cf800050020006033b8005ffe07000203be0045
:101d08000002be004f3ade006033b8008002eb00ec
:101d18000000420081804a0002014b0083814b0091
:101d28008381d1000281d3008180d3000080d30059
:101d380086fc07000001be000800be007bfb070010
:101d4800e38120002e0990004211dd00028141004c
:101d58000089be002e0890004200dd009e08900019
:101d680080804000310f98002e0890006e004000df
:101d780080004000008520000080400010007800ae
:101d8800cf80de0081fc0700f226210033a8230063
:101d980003fd07000004be003e00be002e01be0089
:101da8006afc07000001be000800be00fcfc07003a
:101db8000004be002e089000700040008000400023
:101dc800008520000080400010007800cf80de00f1
:101dd8006efc0700d2cc2c00c3dc2300f0fc07000b
:101de8000002be004e009000de00900001f0a2004c
:101df8000001be000400be00e9fc07000001be00af
:101e08000800be0049fb07000004be002e08900031
:101e180072004000800040000085200000804000e3
:101e280010007800cf80de0058fc0700c25a2c0052
:101e380073722300dafc07000002be00e181200073
:101e48002e0890004200dd00008040001000be0017
:101e58000001be000400be00d1fc07000001be0066
:101e68000800be0031fb07000006be002e089000e7
:101e7800660040008000400000852000008040008f
:101e8800100078006104b900614db9003e00be0041
:101e98002e01be00e00f5000e08f5800e00f5900ff
:101ea800e08f59000b0032001e00780000f0a700f8
:101eb8000000ea00cf80de006109b9000203be001d
:101ec8000002be003e00be002e01be008cfd0700d1
:101ed800020037006000b8006011b8000203be00bd
:101ee8000002be000800be000a01be00e2fd0700b5
:101ef80016fc07000001be000c00be000bfb07002b
:101f08003e0990000089be002e0890004200dd00c6
:101f18009e089000808540002e0890004200dd0059
:101f28009e089000008040001000be000004be0023
:101f380009f0a1002e0890006400400080004000d5
:101f4800008520000080400010007800cf80de006f
:101f58000efc07001ac0b3000001be000800be0056
:101f680093fb07000000e00001003c000045eb0087
:101f78000a04e000260032002e08900064004000a9
:101f8800800040000085200000804000100078009c
:101f9800cf80de00fdfb07000004be002e08900085
:101fa8004200dd009e089000008040001000be0046
:101fb8006011b8007cfb07000000e00002003a0056
:101fc8006000b8000e0037002e0890004200dd00c7
:101fd8009e089000008040001002be002e0890006d
:101fe8004200dd009e089000008040001000be0006
:101ff80001f0a1000001be000400be0028fb07009c
:102008000001be000800be0065fc0700050037009f
:102018002e0890004200dd009e08900000804000dd
:102028001000be00808dbe002e0890004200dd002a
:102038009e089000808440002e0890004200dd0039
:102048009e089000008040001000be0001f0a10032
:1020580018c0b30002002000832c240054fb0700a2
:102068000000e00001003c000044eb000804e00030
:102078001d0032002e0890004200dd009e089000ee
:10208800008040001000be006011b80046fb070049
:102098000000e00002003a006000b80011003700bc
:1020a8002e0890004200dd009e089000008040004d
:1020b8001002be002e0890004200dd009e0890002d
:1020c800008040001000be0001f0a1000001be0029
:1020d8000400be00f2fa070002002000832c24004e
:1020e8002ffc0700050037002e0890004200dd0095
:1020f8009e089000008040001000be00808cbe004a
:102108002e0890004200dd008e08900000804000fc
:102118001000be000004be0009f0a1002e089000c7
:1021280068004000800040000085200000804000da
:1021380010007800cf80de0094fb07001ac0b300bf
:102148000001be000800be0017fb07000000e00009
:10215800010035000045eb000a04e00042003200af
:102168002e0890004200dd009e089000008040008c
:102178001000be000004be0009f0a1002e08900067
:102188006a00400080004000008520000080400078
:1021980010007800cf80de007cfb07001ac0b30077
:1021a8000001be000800be0001fb07000000e000bf
:1021b80001003c000045eb000a04e0002a00320060
:1021c8002e0890004200dd009e0890000085400027
:1021d8002e0890006a004000800040000085200022
:1021e8000080400010007800cf80de0067fb070009
:1021f8000004be002e0890004200dd009e089000fa
:10220800008040001000be006011b800e6fa070028
:102218000000e00002003a006000b8000e0037003d
:102228002e0890004200dd009e08900000804000cb
:102238001002be002e0890004200dd009e089000ab
:10224800008040001000be0001f0a1000001be00a7
:102258000400be0092fa07000001be000800be009c
:10226800cffb0700008dbe002e0890000000400044
:10227800fe00900000804000100078008000780088
:1022880001f0a7008100ea002e08900074004000c9
:102298000001400000852000000041001000780087
:1022a800808f500006003d002e0890004200dd009f
:1022b8009e089000008140006000b8000089be00c0
:1022c800ae0890001e089000720007002e089000cb
:1022d8008000400000852000008040001000780049
:1022e8000000e00006003a002e0890004200dd00e1
:1022f8009e089000008140006000b8000089be0080
:102308004f06be004f05be004f04be000080fa0015
:10231800000006001600fa00889fbe008a1f780099
:10232800000f9800110f9800220f98002e089000b7
:102338000000e000050032002e089000e10f500078
:1023480002003200200020005c0107002e089000e7
:1023580080004000008020000080400010007800cd
:10236800cf80de0009fb070002002000433b240069
:102378004bfa07000004be002e08900078004000c9
:102388008000400000852000008040001000780098
:10239800cf80de00fdfa07000001be000800be0085
:1023a8007ffb070002002000030824007cfb0700d5
:1023b80081fa0700009fbe000297be002e08900019
:1023c8004300dd008e089000008040005001be00f0
:1023d8004000be003e02be002e03be0000005200b8
:1023e80081805a0002015b0083815b0040079800ee
:1023f8005107980062079800730798002e0890000c
:10240800000040009e089000008540004e009000ab
:10241800de0090006e019000fe019000cbfa0700ec
:102428000004be002e0890007800400080004000a4
:10243800008520000080400010007800cf80de007a
:10244800d2fa0700020020000308240054fb07000a
:102458000001be000800be0011fa070002002000bb
:10246800433b24004efb07007cfa0700000078007d
:10247800000d78004e009000de0090006e01900084
:10248800fe0190004f0578004f04be000080fa005e
:10249800000006001000fa00889fbe008a9fbe0058
:1024a8008c1f7800600798007107980041438000ee
:1024b800200320000088b90000007800cf80de00eb
:1024c800b2fa0700f226210033a8230034fb0700e4
:1024d8000004be0051438000200320000088b9009a
:1024e80000007800cf80de00a8fa0700f22621005d
:1024f80033a823002afb070028079800390798000b
:1025080040079800510798007e0090004200dd00c7
:10251800ee009000008040001002be0061812000a3
:102528007e0090004200dd00008040001000be00e8
:102538000001be000400be007bf90700008fbe004a
:102548001e00be000002be0005f0a1007e00900043
:102558004200dd00e4004700008040001000be009b
:1025680018c0b3000001be000400be0010fa070046
:102578000000e00001003c000044eb000804e0001b
:10258800210032007e0090004200dd00ee00900045
:1025980000864000618120007e0090004200dd003e
:1025a800008040001004be007e0090004200dd0064
:1025b800e4004700008040001005be006011b8002c
:1025c8001e00be00f8f907000000e00002003a0013
:1025d8006000b800050037001e00be0001f0a10031
:1025e8000001be001e00be00adf907000001be00dc
:1025f8000a00be00eafa07000001be000800be009b
:102608004af90700008ebe007e0090004200dd00ff
:10261800ee009000008040001000be0063812000a2
:102628007e0190004211dd00028141000089be0058
:102638004f0678004f05be004f04be000080fa0028
:10264800000006000c00fa00889fbe008a1f780070
:102658003007980041079800520798005e009000e4
:102668000000e000050032005e009000e10f50001d
:102678000200320020002000900007005e00900059
:1026880000004000be00900000804000100078006c
:102698008000780001f0a7008100ea005e00900049
:1026a8000001400060802000000041001000780018
:1026b80000f0a7000000ea00008f500010c0b3002f
:1026c8009e0078000100e00001003c000040eb00a3
:1026d800204798005e0090008000400000852000a0
:1026e80000804000100078000000a20000f0a70061
:1026f8000000ea000000e9004f00de0030479800c3
:102708005e0090004200dd00ce0090000080400096
:102718001000be000004be0009f0a1005e00900099
:1027280064004000800040000085200000804000d8
:1027380010007800cf80de0014fa07001ac0b3003a
:102748000001be000800be0097f907000000e00085
:10275800010032000045eb004a4798002e409000e7
:102768008080fb003e4090000080fb00808060007d
:102778004e4090000080fb00008060000000e000f8
:102788000c0032005e00900080004000a080200015
:1027980000804000100078008000e8005e00900093
:1027a80000014000a08020000000410001087800de
:1027b800060037005e00900080004000a0802000e6
:1027c800008040008000eb00010878005e00900067
:1027d8004200dd00ce009000008040001002be00e4
:1027e800e18020005e0090004200dd000080400093
:1027f8001000be000001be000400be0068fa070019
:1028080018c0b3006011b80067f907000000e000c5
:10281800010035000044eb000804e0000600320027
:102828005e00900080004000a080200000804000f2
:102838008000eb00010878005e00900080004000f6
:10284800a08020000080400010007800e30f5000b6
:10285800020036005e009000180007005e0090003d
:102868004200dd00ce009000008040001000be0055
:10287800e38020005e0190004211dd0002814100ea
:102888000089be005e00900000004000be0090007d
:1028980000804000900078005e0090000001400039
:1028a8006080200000004100010878004f05780092
:1028b8004f04be000080fa00000006000200fa0083
:1028c800000f7800c442a900cd82a900c462a90003
:1028d800cda2a9001e0078000000e00011003a0017
:1028e800cc62a80000902000d103200099040700c2
:1028f800cc62a90000902000d103200095040700b5
:10290800cc62a80000902000d103200091040700a9
:10291800cc62a90000402200410f20008d0407006e
:10292800efff37001e007800e10f500011003a0059
:10293800cc42a80000902000d103200085040700a5
:10294800cc42a90000902000d10320008104070098
:10295800cc42a80000902000d10320007d0407008d
:10296800cc42a90000402200410f20007904070052
:10297800efff3700cc62a800cc42a80000902000ee
:10298800d103200073040700cc62a900cc42a9003f
:1029980000902000d10320006e040700cc62a8003c
:1029a800cc42a80000902000d10320006904070051
:1029b800cc62a900cc42a90000402200410f2000af
:1029c80064040700ebff37000800fa00000f7800e6
:1029d800110798002207980033079800a182200069
:1029e8003e0090004200dd00008040000080e800ca
:1029f8001100200001087800a18220003e0090000c
:102a08004200dd00008040008000eb0001087800f3
:102a1800b3003700a18220003e0090004200dd0094
:102a28000080400010007800000040001e004000b8
:102a3800a2822000be009000c208dd008180e8006c
:102a48008100410091007800818040001e019000c3
:102a58008100410091007800c408de00efc06000ea
:102a68008180fb00ef806000c408dd0090017800e1
:102a7800f2f02f0002816100828070000108780066
:102a8800a18220003e0090004200dd00008040004e
:102a980010007800000040001e004000a2822000c4
:102aa800be009000c208dd008180e800810041007e
:102ab800910078008100e800818040001e019000ac
:102ac8008100410091007800c408de00efc060007a
:102ad8008180fb00ef8060009001780002ff2f00ea
:102ae800028161008280700001087800a1822000c4
:102af8003e0090004200dd000080e80000804000b9
:102b080010007800000040009e0090000080400007
:102b1800100078004400de006f4060008080fb00f9
:102b2800a28220003e0090004200dd000080e80004
:102b380000004100100078000000e800000040009c
:102b48001e01900000004100100078006f406000f6
:102b58000080fb0001007000ef0f50000b003a00ee
:102b6800a18220003e0090004200dd00008040006d
:102b780010007800000040001e004000900078001f
:102b88000190a100010878000a003700a182200006
:102b98003e0090004200dd000080400010007800f8
:102ba800000040001e004000900078000190a00046
:102bb80001087800a18220003e0090004200dd005c
:102bc8000080e80000804000100078000000e80065
:102bd800000040009e009000008040001000780037
:102be8004400de006f4060008080fb00a28220006d
:102bf8003e0090004200dd000080e8000000410037
:102c0800100078000080e800000040001e019000dd
:102c180000004100100078006f4060000080fb0059
:102c280001007000ef0f50000b003a00a182200055
:102c38003e0090004200dd00008040001000780057
:102c4800000040001e004000900078000180a100b4
:102c5800010878000a003700a18220003e00900099
:102c68004200dd00008040001000780000004000b5
:102c78001e004000900078000180a0000108780044
:102c8800a18220003e0090004200dd000080e800a4
:102c980000804000100078008080e800a2822000b8
:102ca8003e0090004200dd00000041000080e80086
:102cb80001087800a18220003e0090004200dd005b
:102cc80000804000100078008000e800a282200008
:102cd8003e0090004200dd0000004100010878003d
:102ce800a18220003e0090004200dd0000804000ec
:102cf800900078002e009000808f500045ff35002e
:102d0800218320003e0090004200dd00008040004a
:102d18000080e8008040eb00014878002183200013
:102d28003e0090004200dd00008040000080e80086
:102d38008040eb00114098000080fa000000060077
:102d48000a00fa00000f780021479800220798002f
:102d580033079800440798004e00900000000100d7
:102d68000004e00016003200218320003e0090009d
:102d78004200dd00008040000080e8008040eb0059
:102d880011409800218320003e0090004200dd00a1
:102d980000804000110020000108780021832000f5
:102da8003e0090004200dd00008040000080e80006
:102db8008040eb000148780010c0b300980037004d
:102dc800218320003e0090004200dd000080e800e2
:102dd80000804000104078000004a2000004e000d9
:102de8003c003200218320003e0090004200dd00bc
:102df8000080e80000804000104090000080fb0048
:102e0800000040001e004000ae40900001487800dd
:102e1800218320003e0090004200dd000080e80091
:102e280000804000104090000004e0001a003200ca
:102e38001e80e800100078006f006000e50f500069
:102e48000d003a00218320003e0090004200dd0082
:102e58000080400011002000010878002183200034
:102e68003e0090004200dd00008040000080e80045
:102e780011c0b30001487800218320003e00900073
:102e88004200dd00008040000080e8008040eb0048
:102e980011409800610037001e00780090407800cb
:102ea80030c5b30080cf500008003a0021832000cd
:102eb8003e0090004200dd00008040000080e800f5
:102ec80011c0b300114098005400370010c0b3007f
:102ed80053003700218320003e0090004200dd00af
:102ee80000804000100078008000e8002283200065
:102ef8003e0090004200dd0000004100010878001b
:102f0800218320003e0090004200dd000080400048
:102f180010007800000040001e004000ae40900005
:102f280001487800218320003e0090004200dd0027
:102f38000080400010007800000040001e004000a3
:102f48009040780030c4b30080cf50001d003a0094
:102f5800218320003e0090004200dd0000804000f8
:102f6800100078000000e900000040001e0040004a
:102f780090007800000f200080806000000320008f
:102f8800808f50000f003a00218320003e009000ff
:102f98004200dd0000804000110020000108780098
:102fa800218320003e0090004200dd0000804000a8
:102fb8000080e8008040eb000148780020c0b300a2
:102fc80017003700218320003e0090004200dd00fa
:102fd80000804000900078002e0090000000e9007a
:102fe800808f50000d003a00218320003e009000a1
:102ff8004200dd0000804000110020000108780038
:10300800218320003e0090004200dd000080400047
:103018000080e8008040eb00014878000040eb00a9
:103028000080fa00000006000600fa00000f780091
:1030380011079800424798004e4090000004a200f3
:103048000004e000080032009e00780030c5b3009c
:10305800010001009e00900010c0b30001000100b3
:1030680050c0b30028e8b7000080fa00000006004e
:103078000a00fa00000f780011079800220798004c
:1030880033079800440798004e0090006600b90086
:103098008000780080c62000008040009000780002
:1030a8003e009000808f50005c0032004e0090007f
:1030b8006600b9008000780080c6200000804000cb
:1030c800100078000000e00002003a0050c0b30091
:1030d80028e8b7004e0090006600b90000007800ac
:1030e800e400400080c620000080400010407800c6
:1030f8000004e000180032004e0090006600b9009d
:103108008000780080c62000008040001000780011
:103118001e004000104078008040780000cfb300c7
:1031280080c0600028c8bf006f40600000c0700009
:103138009e009000010001004e0090006600b9005a
:1031480080007800c0c62000008040008040eb006e
:10315800014878007d0037004e0090006600b900f5
:103168008000780080c620000080400010007800b1
:103178001e0040001040780000c0ea0028e8b700b0
:103188004e0090006600b9008000780080c62000dc
:1031980000804000100078001e00400010407800b9
:1031a8000080fb004400dd008040780028c8bf0094
:1031b8000080fb004400de000040780000c0700082
:1031c8009e009000010001004e0090006600b900ca
:1031d80080007800c0c620000080400011c0b30005
:1031e800014878004e0090006600b9008000780021
:1031f80080c6200000804000100078000001e80030
:103208004e0090006600b9008000780080c620005b
:1032180000804000020878004c0037004e00900003
:103228006600b900000078008080e80080c62000b1
:1032380000804000100078000000e00015003a000f
:1032480028c8bf00ef40600000c3b30000c0700092
:103258009e009000010001004e0090006600b90039
:10326800000078008080e80080c6200000804000d0
:10327800100078000001e8004e0090006600b900d8
:1032880080007800a0c62000008040000208780076
:103298002e0037004e0090006600b900000078004c
:1032a8008080e80080c62000008040001000780080
:1032b800e10f500012003a009e00900030c4b300a5
:1032c800010001004e0090006600b900000078007f
:1032d8008080e80080c62000008040001000780050
:1032e8000001e8004e0090006600b90080007800f8
:1032f800a0c62000008040000208780013003700b4
:103308004e0090006600b90080007800a0c620003a
:10331800008040008000eb00010878004e0090001b
:103328006600b9008000780080c620000080400058
:103338008000eb0001087800ae0090000040eb0030
:103348000100010010c0b300010037000040eb008d
:103358000080fa00000006000000fa003a28ef009a
:103368000a003700d0418000a18220004200dd0021
:10337800008040000080e80011002000010878006b
:10338800d04180000000e800d0418800d041800092
:10339800e10f5000f3ff34003a28ef001000370027
:1033a800d0418000218320004200dd0000804000e1
:1033b8001100200001087800d04180006600b900a3
:1033c80080007800c0c620000080400011c0b30013
:1033d80001487800d04180000000e800d041880012
:1033e800d0418000e10f5000edff34000080fa006a
:1033f800000006000200fa00004f78001e80fb0063
:10340800201188000080fa00000006000200fa007f
:10341800004f78001e80fb00610060004c00dd005a
:10342800a104800001c0a10001007000a004880070
:103438000080fa00000006000200fa001011800067
:10344800640060000000e00004003a0010118000f1
:10345800620060000000e0000a00320030118000c5
:10346800004f7800808020000011880000002200b2
:103478001011880021e2a8002342a80010c0b30060
:10348800010037000040eb000080fa000000060051
:103498000600fa00200798000000eb00000f7800f3
:1034a8000000eb00100798008001eb00520020009c
:1034b80041c72000e0c8200043fd0700e0c8200005
:1034c800104078008080fb001e00e800808f5000cc
:1034d80004003a001e0090000000e8001007980061
:1034e80006003700e0c8200010407800e14f400097
:1034f8003a0032000000eb00100798001e00900010
:10350800ea0f50001d0036001e0078004200dd0062
:10351800ae0090000080400001c920009140780072
:103528008180fb004809dd0021c920009140780016
:103538008180fb0082807000010878001e007800fe
:103548004200dd00ae0090000080400041c920002c
:10355800914078008180fb004809dd0061c92000a6
:10356800914078008180fb008280700011009800f3
:103578001e0fe8000000eb00100798003cc8bf00d1
:103588000004e000110032001e007800804078003e
:1035980080c9200001487800a00480004c00de00ab
:1035a800614060000080fb0000f0a7000000ea0016
:1035b8000000ea004f00de0000407800004178007b
:1035c800a1a02100e09f210097fe070000d4200061
:1035d800310020005f010700b3ff37000000000042
:1035e8000080fa00000006000200fa00000f7800d0
:1035f8001e007800040007001e0078006000070025
:103608000080fa00000006000400fa00881f780015
:10361800100798000000eb00000f78003100370019
:103628001e0078004200dd009e00900000804000ef
:103638001000be0001f0a10018c0b3000200200075
:10364800832c2400daf507000000e00001003c00ac
:103658000044eb000804e000210032001e0078005e
:103668004200dd009e009000008440001e007800ab
:103678004200dd009e009000008040001000be0067
:103688006011b800c8f507000000e00002003a0029
:103698006000b800110037001e0078004200dd000d
:1036a8009e009000008040001002be001e007800be
:1036b8004200dd009e009000008040001000be0027
:1036c80001f0a1000001be000400be0074f507006f
:1036d80002002000832c2400b1f60700008cbe00f5
:1036e8001e0fe8001e007800e10f5000ccff3600e6
:1036f8001e0090001000be0001f0a1000001be00f5
:1037080000002000812c240007f50700020020009b
:1037180003502400a2f60700a2702d0033c2230034
:103728009ff60700eef5070000007800000c8800ff
:103738001e009000640040001000be0001f0a100cf
:103748000001be0000002000812c2400f6f40700d0
:10375800020020000350240091f60700a2702d00fb
:1037680033c223008ef60700ddf50700000078005d
:10377800300c88004f0478000080fa000000060032
:103788000200fa00881f7800000f78001e007800f9
:103798001000be006011b80083f507000000e000cb
:1037a80003003a00c442a900cd82a9000f003700e7
:1037b8001e0078001000be0018c0b3006011b800e9
:1037c8007bf507000000e00001003c000044eb002e
:1037d8000804e00003003200c442a800cd82a9001a
:1037e80002003700c442a900cd82a8009e007800dc
:1037f800648040001000be006011b8006af5070040
:103808000000e00003003a00c462a900cda2a900ac
:10381800100037009e007800648040001000be0051
:1038280018c0b3006011b80061f507000000e0009f
:1038380001003c000044eb000804e00003003200f3
:10384800c462a800cda2a90002003700c462a90082
:10385800cda2a8004f0478000080fa0000000600fe
:103868000000fa0020012000403a88006002200091
:10387800303a8800213a800000fe2f000080600066
:10388800203a8800213a8000f0f32f000080600081
:10389800203a8800213a8000f08f2f0000806000d5
:1038a800203a880040a7a9001200200080072000c5
:1038b800a1092000337420008049780081497800ec
:1038c8008249780012002000600420007105200061
:1038d8002374200080497800814978008249780063
:1038e80000000000113a800000002700808060007e
:1038f80000002100808f5000faff3a00000000000d
:10390800113a800000022000008060000000e00002
:10391800fbff32000080fa00000006000000fa00f9
:103928000080eb0060198800c842a900c862a9009d
:10393800c9e2a900c962a800c8e2a800c902a80093
:10394800c942a800c922a800c982a900c042a9008a
:10395800c062a900c9a2a900c9c2a900c882a90059
:1039680071368000f00f2e0080806000003020004b
:1039780001007000703688002135800000fe2f009d
:1039880000806000b000b3002035880071368000e8
:1039980000fe2f00008060002001b3007036880010
:1039a8002136800000fe2f00008060003001b30047
:1039b80020368800e134800000fe2f00008060007f
:1039c8007000b300e0348800e1348000f00f2e006e
:1039d8000080600000b0a000e0348800013580005d
:1039e80000fe2f0000806000a000b30000358800b2
:1039f80001358000f00f2e008080600000902000cc
:103a080001007000003588000080fa000000060000
:103a18000000fa009560a80080802000001188004e
:103a28000000220010118800500a20004011880070
:103a38008580a9008560a90021e2a8002342a8008a
:103a48009b40a800010f800000702000010070005a
:103a5800000f8800e0e1a9000080eb00300f88002b
:103a6800e421ef009d60a800810f80000070200015
:103a780001007000800f8800f0e1a9000080eb00d1
:103a8800b00f8800f421ef009460a800210880009e
:103a9800f0fc2f0000806000200888000021ef0063
:103aa800109229001008880005e1a800210880006c
:103ab800f0fc2f00008060002008880000802000b3
:103ac8006008880011e1a800210c800080ff2f0009
:103ad800008060006000b300200c88008461a900a9
:103ae800510c800080ff2f00008060006000b30050
:103af800500c88008a61a9006040a8006060a80096
:103b08008660a9009660a8000080fa000000060000
:020000040000fa
:103b18003e0800002a040000000000000008000021
:103b280028000000000000003c080000020000001f
:103b38000200000001000000680c000038000000ce
:103b48000000000028080000140000000000000029
:043b58000000000069
:020000040000fa
:103b5c00f03fb1000180b10006003500ee03090012
:103b6c0000000000403fb1000180b100fbff3d00b0
:103b7c001000b000203fb0000200350000800900aa
:083b8c0000000000000006002b
:020000040000fa
:0200000401f009
:04000000ffff0000fe
:020000040000fa
:0200000401f009
:04000400ffff0000fa
:020000040000fa
:0200000401f009
:04000800ffff0000f6
:020000040000fa
:0200000401f009
:04000c008000000070
:020000040000fa
:0200000401f009
:0400100043000000a9
:020000040000fa
:0200000401f009
:040014005f00000089
:020000040000fa
:0200000401f009
:04001800970000004d
:020000040000fa
:0200000401f009
:04001c00dfff000002
:00000001FF
